{
  "_format": "hh-sol-artifact-1",
  "contractName": "MintableERC1155Token",
  "sourceName": "contracts/ERC1155UniversallyMintable.sol",
  "abi": [
    {
      "inputs": [],
      "stateMutability": "nonpayable",
      "type": "constructor"
    },
    {
      "anonymous": false,
      "inputs": [
        {
          "indexed": true,
          "internalType": "address",
          "name": "account",
          "type": "address"
        },
        {
          "indexed": true,
          "internalType": "address",
          "name": "operator",
          "type": "address"
        },
        {
          "indexed": false,
          "internalType": "bool",
          "name": "approved",
          "type": "bool"
        }
      ],
      "name": "ApprovalForAll",
      "type": "event"
    },
    {
      "anonymous": false,
      "inputs": [
        {
          "indexed": true,
          "internalType": "address",
          "name": "previousOwner",
          "type": "address"
        },
        {
          "indexed": true,
          "internalType": "address",
          "name": "newOwner",
          "type": "address"
        }
      ],
      "name": "OwnershipTransferred",
      "type": "event"
    },
    {
      "anonymous": false,
      "inputs": [
        {
          "indexed": true,
          "internalType": "address",
          "name": "operator",
          "type": "address"
        },
        {
          "indexed": true,
          "internalType": "address",
          "name": "from",
          "type": "address"
        },
        {
          "indexed": true,
          "internalType": "address",
          "name": "to",
          "type": "address"
        },
        {
          "indexed": false,
          "internalType": "uint256[]",
          "name": "ids",
          "type": "uint256[]"
        },
        {
          "indexed": false,
          "internalType": "uint256[]",
          "name": "values",
          "type": "uint256[]"
        }
      ],
      "name": "TransferBatch",
      "type": "event"
    },
    {
      "anonymous": false,
      "inputs": [
        {
          "indexed": true,
          "internalType": "address",
          "name": "operator",
          "type": "address"
        },
        {
          "indexed": true,
          "internalType": "address",
          "name": "from",
          "type": "address"
        },
        {
          "indexed": true,
          "internalType": "address",
          "name": "to",
          "type": "address"
        },
        {
          "indexed": false,
          "internalType": "uint256",
          "name": "id",
          "type": "uint256"
        },
        {
          "indexed": false,
          "internalType": "uint256",
          "name": "value",
          "type": "uint256"
        }
      ],
      "name": "TransferSingle",
      "type": "event"
    },
    {
      "anonymous": false,
      "inputs": [
        {
          "indexed": false,
          "internalType": "string",
          "name": "value",
          "type": "string"
        },
        {
          "indexed": true,
          "internalType": "uint256",
          "name": "id",
          "type": "uint256"
        }
      ],
      "name": "URI",
      "type": "event"
    },
    {
      "inputs": [
        {
          "internalType": "address",
          "name": "account",
          "type": "address"
        },
        {
          "internalType": "uint256",
          "name": "id",
          "type": "uint256"
        }
      ],
      "name": "balanceOf",
      "outputs": [
        {
          "internalType": "uint256",
          "name": "",
          "type": "uint256"
        }
      ],
      "stateMutability": "view",
      "type": "function"
    },
    {
      "inputs": [
        {
          "internalType": "address[]",
          "name": "accounts",
          "type": "address[]"
        },
        {
          "internalType": "uint256[]",
          "name": "ids",
          "type": "uint256[]"
        }
      ],
      "name": "balanceOfBatch",
      "outputs": [
        {
          "internalType": "uint256[]",
          "name": "",
          "type": "uint256[]"
        }
      ],
      "stateMutability": "view",
      "type": "function"
    },
    {
      "inputs": [
        {
          "internalType": "address",
          "name": "account",
          "type": "address"
        },
        {
          "internalType": "address",
          "name": "operator",
          "type": "address"
        }
      ],
      "name": "isApprovedForAll",
      "outputs": [
        {
          "internalType": "bool",
          "name": "",
          "type": "bool"
        }
      ],
      "stateMutability": "view",
      "type": "function"
    },
    {
      "inputs": [
        {
          "internalType": "address",
          "name": "account",
          "type": "address"
        },
        {
          "internalType": "uint256",
          "name": "id",
          "type": "uint256"
        },
        {
          "internalType": "uint256",
          "name": "amount",
          "type": "uint256"
        },
        {
          "internalType": "bytes",
          "name": "data",
          "type": "bytes"
        }
      ],
      "name": "mint",
      "outputs": [],
      "stateMutability": "nonpayable",
      "type": "function"
    },
    {
      "inputs": [
        {
          "internalType": "address",
          "name": "to",
          "type": "address"
        },
        {
          "internalType": "uint256[]",
          "name": "ids",
          "type": "uint256[]"
        },
        {
          "internalType": "uint256[]",
          "name": "amounts",
          "type": "uint256[]"
        },
        {
          "internalType": "bytes",
          "name": "data",
          "type": "bytes"
        }
      ],
      "name": "mintBatch",
      "outputs": [],
      "stateMutability": "nonpayable",
      "type": "function"
    },
    {
      "inputs": [],
      "name": "owner",
      "outputs": [
        {
          "internalType": "address",
          "name": "",
          "type": "address"
        }
      ],
      "stateMutability": "view",
      "type": "function"
    },
    {
      "inputs": [],
      "name": "renounceOwnership",
      "outputs": [],
      "stateMutability": "nonpayable",
      "type": "function"
    },
    {
      "inputs": [
        {
          "internalType": "address",
          "name": "from",
          "type": "address"
        },
        {
          "internalType": "address",
          "name": "to",
          "type": "address"
        },
        {
          "internalType": "uint256[]",
          "name": "ids",
          "type": "uint256[]"
        },
        {
          "internalType": "uint256[]",
          "name": "amounts",
          "type": "uint256[]"
        },
        {
          "internalType": "bytes",
          "name": "data",
          "type": "bytes"
        }
      ],
      "name": "safeBatchTransferFrom",
      "outputs": [],
      "stateMutability": "nonpayable",
      "type": "function"
    },
    {
      "inputs": [
        {
          "internalType": "address",
          "name": "from",
          "type": "address"
        },
        {
          "internalType": "address",
          "name": "to",
          "type": "address"
        },
        {
          "internalType": "uint256",
          "name": "id",
          "type": "uint256"
        },
        {
          "internalType": "uint256",
          "name": "amount",
          "type": "uint256"
        },
        {
          "internalType": "bytes",
          "name": "data",
          "type": "bytes"
        }
      ],
      "name": "safeTransferFrom",
      "outputs": [],
      "stateMutability": "nonpayable",
      "type": "function"
    },
    {
      "inputs": [
        {
          "internalType": "address",
          "name": "operator",
          "type": "address"
        },
        {
          "internalType": "bool",
          "name": "approved",
          "type": "bool"
        }
      ],
      "name": "setApprovalForAll",
      "outputs": [],
      "stateMutability": "nonpayable",
      "type": "function"
    },
    {
      "inputs": [
        {
          "internalType": "bytes4",
          "name": "interfaceId",
          "type": "bytes4"
        }
      ],
      "name": "supportsInterface",
      "outputs": [
        {
          "internalType": "bool",
          "name": "",
          "type": "bool"
        }
      ],
      "stateMutability": "view",
      "type": "function"
    },
    {
      "inputs": [
        {
          "internalType": "address",
          "name": "newOwner",
          "type": "address"
        }
      ],
      "name": "transferOwnership",
      "outputs": [],
      "stateMutability": "nonpayable",
      "type": "function"
    },
    {
      "inputs": [
        {
          "internalType": "uint256",
          "name": "",
          "type": "uint256"
        }
      ],
      "name": "uri",
      "outputs": [
        {
          "internalType": "string",
          "name": "",
          "type": "string"
        }
      ],
      "stateMutability": "view",
      "type": "function"
    }
  ],
  "bytecode": {
    "object": "0x608060405260006004553480156200001657600080fd5b506040518060200160405280600081525062000038816200005f60201b60201c565b50620000596200004d6200007460201b60201c565b6200007c60201b60201c565b620004a3565b8060029081620000709190620003bc565b5050565b600033905090565b6000600360009054906101000a900473ffffffffffffffffffffffffffffffffffffffff16905081600360006101000a81548173ffffffffffffffffffffffffffffffffffffffff021916908373ffffffffffffffffffffffffffffffffffffffff1602179055508173ffffffffffffffffffffffffffffffffffffffff168173ffffffffffffffffffffffffffffffffffffffff167f8be0079c531659141344cd1fd0a4f28419497f9722a3daafe3b4186f6b6457e060405160405180910390a35050565b600081519050919050565b7f4e487b7100000000000000000000000000000000000000000000000000000000600052604160045260246000fd5b7f4e487b7100000000000000000000000000000000000000000000000000000000600052602260045260246000fd5b60006002820490506001821680620001c457607f821691505b602082108103620001da57620001d96200017c565b5b50919050565b60008190508160005260206000209050919050565b60006020601f8301049050919050565b600082821b905092915050565b600060088302620002447fffffffffffffffffffffffffffffffffffffffffffffffffffffffffffffffff8262000205565b62000250868362000205565b95508019841693508086168417925050509392505050565b6000819050919050565b6000819050919050565b60006200029d62000297620002918462000268565b62000272565b62000268565b9050919050565b6000819050919050565b620002b9836200027c565b620002d1620002c882620002a4565b84845462000212565b825550505050565b600090565b620002e8620002d9565b620002f5818484620002ae565b505050565b5b818110156200031d5762000311600082620002de565b600181019050620002fb565b5050565b601f8211156200036c576200033681620001e0565b6200034184620001f5565b8101602085101562000351578190505b620003696200036085620001f5565b830182620002fa565b50505b505050565b600082821c905092915050565b6000620003916000198460080262000371565b1980831691505092915050565b6000620003ac83836200037e565b9150826002028217905092915050565b620003c78262000142565b67ffffffffffffffff811115620003e357620003e26200014d565b5b620003ef8254620001ab565b620003fc82828562000321565b600060209050601f8311600181146200043457600084156200041f578287015190505b6200042b85826200039e565b8655506200049b565b601f1984166200044486620001e0565b60005b828110156200046e5784890151825560018201915060208501945060208101905062000447565b868310156200048e57848901516200048a601f8916826200037e565b8355505b6001600288020188555050505b505050505050565b612ed580620004b36000396000f3fe608060405234801561001057600080fd5b50600436106100ce5760003560e01c8063715018a61161008c578063a22cb46511610066578063a22cb4651461020f578063e985e9c51461022b578063f242432a1461025b578063f2fde38b14610277576100ce565b8063715018a6146101cb578063731133e9146101d55780638da5cb5b146101f1576100ce565b8062fdd58e146100d357806301ffc9a7146101035780630e89341c146101335780631f7fdffa146101635780632eb2c2d61461017f5780634e1273f41461019b575b600080fd5b6100ed60048036038101906100e89190611a78565b610293565b6040516100fa9190611ac7565b60405180910390f35b61011d60048036038101906101189190611b3a565b61035b565b60405161012a9190611b82565b60405180910390f35b61014d60048036038101906101489190611b9d565b61043d565b60405161015a9190611c5a565b60405180910390f35b61017d60048036038101906101789190611e79565b6104d1565b005b61019960048036038101906101949190611f34565b6104e3565b005b6101b560048036038101906101b091906120c6565b610584565b6040516101c291906121fc565b60405180910390f35b6101d361069d565b005b6101ef60048036038101906101ea919061221e565b6106b1565b005b6101f96106c3565b60405161020691906122b0565b60405180910390f35b610229600480360381019061022491906122f7565b6106ed565b005b61024560048036038101906102409190612337565b610703565b6040516102529190611b82565b60405180910390f35b61027560048036038101906102709190612377565b610797565b005b610291600480360381019061028c919061240e565b610838565b005b60008073ffffffffffffffffffffffffffffffffffffffff168373ffffffffffffffffffffffffffffffffffffffff1603610303576040517f08c379a00000000000000000000000000000000000000000000000000000000081526004016102fa906124ad565b60405180910390fd5b60008083815260200190815260200160002060008473ffffffffffffffffffffffffffffffffffffffff1673ffffffffffffffffffffffffffffffffffffffff16815260200190815260200160002054905092915050565b60007fd9b67a26000000000000000000000000000000000000000000000000000000007bffffffffffffffffffffffffffffffffffffffffffffffffffffffff1916827bffffffffffffffffffffffffffffffffffffffffffffffffffffffff1916148061042657507f0e89341c000000000000000000000000000000000000000000000000000000007bffffffffffffffffffffffffffffffffffffffffffffffffffffffff1916827bffffffffffffffffffffffffffffffffffffffffffffffffffffffff1916145b806104365750610435826108bb565b5b9050919050565b60606002805461044c906124fc565b80601f0160208091040260200160405190810160405280929190818152602001828054610478906124fc565b80156104c55780601f1061049a576101008083540402835291602001916104c5565b820191906000526020600020905b8154815290600101906020018083116104a857829003601f168201915b50505050509050919050565b6104dd84848484610925565b50505050565b6104eb610b51565b73ffffffffffffffffffffffffffffffffffffffff168573ffffffffffffffffffffffffffffffffffffffff16148061053157506105308561052b610b51565b610703565b5b610570576040517f08c379a00000000000000000000000000000000000000000000000000000000081526004016105679061259f565b60405180910390fd5b61057d8585858585610b59565b5050505050565b606081518351146105ca576040517f08c379a00000000000000000000000000000000000000000000000000000000081526004016105c190612631565b60405180910390fd5b6000835167ffffffffffffffff8111156105e7576105e6611c81565b5b6040519080825280602002602001820160405280156106155781602001602082028036833780820191505090505b50905060005b84518110156106925761066285828151811061063a57610639612651565b5b602002602001015185838151811061065557610654612651565b5b6020026020010151610293565b82828151811061067557610674612651565b5b6020026020010181815250508061068b906126af565b905061061b565b508091505092915050565b6106a5610e7a565b6106af6000610ef8565b565b6106bd84848484610fbe565b50505050565b6000600360009054906101000a900473ffffffffffffffffffffffffffffffffffffffff16905090565b6106ff6106f8610b51565b838361116e565b5050565b6000600160008473ffffffffffffffffffffffffffffffffffffffff1673ffffffffffffffffffffffffffffffffffffffff16815260200190815260200160002060008373ffffffffffffffffffffffffffffffffffffffff1673ffffffffffffffffffffffffffffffffffffffff16815260200190815260200160002060009054906101000a900460ff16905092915050565b61079f610b51565b73ffffffffffffffffffffffffffffffffffffffff168573ffffffffffffffffffffffffffffffffffffffff1614806107e557506107e4856107df610b51565b610703565b5b610824576040517f08c379a000000000000000000000000000000000000000000000000000000000815260040161081b9061259f565b60405180910390fd5b61083185858585856112da565b5050505050565b610840610e7a565b600073ffffffffffffffffffffffffffffffffffffffff168173ffffffffffffffffffffffffffffffffffffffff16036108af576040517f08c379a00000000000000000000000000000000000000000000000000000000081526004016108a690612769565b60405180910390fd5b6108b881610ef8565b50565b60007f01ffc9a7000000000000000000000000000000000000000000000000000000007bffffffffffffffffffffffffffffffffffffffffffffffffffffffff1916827bffffffffffffffffffffffffffffffffffffffffffffffffffffffff1916149050919050565b600073ffffffffffffffffffffffffffffffffffffffff168473ffffffffffffffffffffffffffffffffffffffff1603610994576040517f08c379a000000000000000000000000000000000000000000000000000000000815260040161098b906127fb565b60405180910390fd5b81518351146109d8576040517f08c379a00000000000000000000000000000000000000000000000000000000081526004016109cf9061288d565b60405180910390fd5b60006109e2610b51565b90506109f381600087878787611575565b60005b8451811015610aac57838181518110610a1257610a11612651565b5b6020026020010151600080878481518110610a3057610a2f612651565b5b6020026020010151815260200190815260200160002060008873ffffffffffffffffffffffffffffffffffffffff1673ffffffffffffffffffffffffffffffffffffffff1681526020019081526020016000206000828254610a9291906128ad565b925050819055508080610aa4906126af565b9150506109f6565b508473ffffffffffffffffffffffffffffffffffffffff16600073ffffffffffffffffffffffffffffffffffffffff168273ffffffffffffffffffffffffffffffffffffffff167f4a39dc06d4c0dbc64b70af90fd698a233a518aa5d07e595d983b8c0526c8f7fb8787604051610b249291906128e1565b60405180910390a4610b3b8160008787878761157d565b610b4a81600087878787611585565b5050505050565b600033905090565b8151835114610b9d576040517f08c379a0000000000000000000000000000000000000000000000000000000008152600401610b949061288d565b60405180910390fd5b600073ffffffffffffffffffffffffffffffffffffffff168473ffffffffffffffffffffffffffffffffffffffff1603610c0c576040517f08c379a0000000000000000000000000000000000000000000000000000000008152600401610c039061298a565b60405180910390fd5b6000610c16610b51565b9050610c26818787878787611575565b60005b8451811015610dd7576000858281518110610c4757610c46612651565b5b602002602001015190506000858381518110610c6657610c65612651565b5b60200260200101519050600080600084815260200190815260200160002060008b73ffffffffffffffffffffffffffffffffffffffff1673ffffffffffffffffffffffffffffffffffffffff16815260200190815260200160002054905081811015610d07576040517f08c379a0000000000000000000000000000000000000000000000000000000008152600401610cfe90612a1c565b60405180910390fd5b81810360008085815260200190815260200160002060008c73ffffffffffffffffffffffffffffffffffffffff1673ffffffffffffffffffffffffffffffffffffffff168152602001908152602001600020819055508160008085815260200190815260200160002060008b73ffffffffffffffffffffffffffffffffffffffff1673ffffffffffffffffffffffffffffffffffffffff1681526020019081526020016000206000828254610dbc91906128ad565b9250508190555050505080610dd0906126af565b9050610c29565b508473ffffffffffffffffffffffffffffffffffffffff168673ffffffffffffffffffffffffffffffffffffffff168273ffffffffffffffffffffffffffffffffffffffff167f4a39dc06d4c0dbc64b70af90fd698a233a518aa5d07e595d983b8c0526c8f7fb8787604051610e4e9291906128e1565b60405180910390a4610e6481878787878761157d565b610e72818787878787611585565b505050505050565b610e82610b51565b73ffffffffffffffffffffffffffffffffffffffff16610ea06106c3565b73ffffffffffffffffffffffffffffffffffffffff1614610ef6576040517f08c379a0000000000000000000000000000000000000000000000000000000008152600401610eed90612a88565b60405180910390fd5b565b6000600360009054906101000a900473ffffffffffffffffffffffffffffffffffffffff16905081600360006101000a81548173ffffffffffffffffffffffffffffffffffffffff021916908373ffffffffffffffffffffffffffffffffffffffff1602179055508173ffffffffffffffffffffffffffffffffffffffff168173ffffffffffffffffffffffffffffffffffffffff167f8be0079c531659141344cd1fd0a4f28419497f9722a3daafe3b4186f6b6457e060405160405180910390a35050565b600073ffffffffffffffffffffffffffffffffffffffff168473ffffffffffffffffffffffffffffffffffffffff160361102d576040517f08c379a0000000000000000000000000000000000000000000000000000000008152600401611024906127fb565b60405180910390fd5b6000611037610b51565b905060006110448561175c565b905060006110518561175c565b905061106283600089858589611575565b8460008088815260200190815260200160002060008973ffffffffffffffffffffffffffffffffffffffff1673ffffffffffffffffffffffffffffffffffffffff16815260200190815260200160002060008282546110c191906128ad565b925050819055508673ffffffffffffffffffffffffffffffffffffffff16600073ffffffffffffffffffffffffffffffffffffffff168473ffffffffffffffffffffffffffffffffffffffff167fc3d58168c5ae7397731d063d5bbf3d657854427343f4c083240f7aacaa2d0f62898960405161113f929190612aa8565b60405180910390a46111568360008985858961157d565b611165836000898989896117d6565b50505050505050565b8173ffffffffffffffffffffffffffffffffffffffff168373ffffffffffffffffffffffffffffffffffffffff16036111dc576040517f08c379a00000000000000000000000000000000000000000000000000000000081526004016111d390612b43565b60405180910390fd5b80600160008573ffffffffffffffffffffffffffffffffffffffff1673ffffffffffffffffffffffffffffffffffffffff16815260200190815260200160002060008473ffffffffffffffffffffffffffffffffffffffff1673ffffffffffffffffffffffffffffffffffffffff16815260200190815260200160002060006101000a81548160ff0219169083151502179055508173ffffffffffffffffffffffffffffffffffffffff168373ffffffffffffffffffffffffffffffffffffffff167f17307eab39ab6107e8899845ad3d59bd9653f200f220920489ca2b5937696c31836040516112cd9190611b82565b60405180910390a3505050565b600073ffffffffffffffffffffffffffffffffffffffff168473ffffffffffffffffffffffffffffffffffffffff1603611349576040517f08c379a00000000000000000000000000000000000000000000000000000000081526004016113409061298a565b60405180910390fd5b6000611353610b51565b905060006113608561175c565b9050600061136d8561175c565b905061137d838989858589611575565b600080600088815260200190815260200160002060008a73ffffffffffffffffffffffffffffffffffffffff1673ffffffffffffffffffffffffffffffffffffffff16815260200190815260200160002054905085811015611414576040517f08c379a000000000000000000000000000000000000000000000000000000000815260040161140b90612a1c565b60405180910390fd5b85810360008089815260200190815260200160002060008b73ffffffffffffffffffffffffffffffffffffffff1673ffffffffffffffffffffffffffffffffffffffff168152602001908152602001600020819055508560008089815260200190815260200160002060008a73ffffffffffffffffffffffffffffffffffffffff1673ffffffffffffffffffffffffffffffffffffffff16815260200190815260200160002060008282546114c991906128ad565b925050819055508773ffffffffffffffffffffffffffffffffffffffff168973ffffffffffffffffffffffffffffffffffffffff168573ffffffffffffffffffffffffffffffffffffffff167fc3d58168c5ae7397731d063d5bbf3d657854427343f4c083240f7aacaa2d0f628a8a604051611546929190612aa8565b60405180910390a461155c848a8a86868a61157d565b61156a848a8a8a8a8a6117d6565b505050505050505050565b505050505050565b505050505050565b6115a48473ffffffffffffffffffffffffffffffffffffffff166119ad565b15611754578373ffffffffffffffffffffffffffffffffffffffff1663bc197c8187878686866040518663ffffffff1660e01b81526004016115ea959493929190612bb8565b6020604051808303816000875af192505050801561162657506040513d601f19601f820116820180604052508101906116239190612c35565b60015b6116cb57611632612c6f565b806308c379a00361168e5750611646612c91565b806116515750611690565b806040517f08c379a00000000000000000000000000000000000000000000000000000000081526004016116859190611c5a565b60405180910390fd5b505b6040517f08c379a00000000000000000000000000000000000000000000000000000000081526004016116c290612d93565b60405180910390fd5b63bc197c8160e01b7bffffffffffffffffffffffffffffffffffffffffffffffffffffffff1916817bffffffffffffffffffffffffffffffffffffffffffffffffffffffff191614611752576040517f08c379a000000000000000000000000000000000000000000000000000000000815260040161174990612e25565b60405180910390fd5b505b505050505050565b60606000600167ffffffffffffffff81111561177b5761177a611c81565b5b6040519080825280602002602001820160405280156117a95781602001602082028036833780820191505090505b50905082816000815181106117c1576117c0612651565b5b60200260200101818152505080915050919050565b6117f58473ffffffffffffffffffffffffffffffffffffffff166119ad565b156119a5578373ffffffffffffffffffffffffffffffffffffffff1663f23a6e6187878686866040518663ffffffff1660e01b815260040161183b959493929190612e45565b6020604051808303816000875af192505050801561187757506040513d601f19601f820116820180604052508101906118749190612c35565b60015b61191c57611883612c6f565b806308c379a0036118df5750611897612c91565b806118a257506118e1565b806040517f08c379a00000000000000000000000000000000000000000000000000000000081526004016118d69190611c5a565b60405180910390fd5b505b6040517f08c379a000000000000000000000000000000000000000000000000000000000815260040161191390612d93565b60405180910390fd5b63f23a6e6160e01b7bffffffffffffffffffffffffffffffffffffffffffffffffffffffff1916817bffffffffffffffffffffffffffffffffffffffffffffffffffffffff1916146119a3576040517f08c379a000000000000000000000000000000000000000000000000000000000815260040161199a90612e25565b60405180910390fd5b505b505050505050565b6000808273ffffffffffffffffffffffffffffffffffffffff163b119050919050565b6000604051905090565b600080fd5b600080fd5b600073ffffffffffffffffffffffffffffffffffffffff82169050919050565b6000611a0f826119e4565b9050919050565b611a1f81611a04565b8114611a2a57600080fd5b50565b600081359050611a3c81611a16565b92915050565b6000819050919050565b611a5581611a42565b8114611a6057600080fd5b50565b600081359050611a7281611a4c565b92915050565b60008060408385031215611a8f57611a8e6119da565b5b6000611a9d85828601611a2d565b9250506020611aae85828601611a63565b9150509250929050565b611ac181611a42565b82525050565b6000602082019050611adc6000830184611ab8565b92915050565b60007fffffffff0000000000000000000000000000000000000000000000000000000082169050919050565b611b1781611ae2565b8114611b2257600080fd5b50565b600081359050611b3481611b0e565b92915050565b600060208284031215611b5057611b4f6119da565b5b6000611b5e84828501611b25565b91505092915050565b60008115159050919050565b611b7c81611b67565b82525050565b6000602082019050611b976000830184611b73565b92915050565b600060208284031215611bb357611bb26119da565b5b6000611bc184828501611a63565b91505092915050565b600081519050919050565b600082825260208201905092915050565b60005b83811015611c04578082015181840152602081019050611be9565b60008484015250505050565b6000601f19601f8301169050919050565b6000611c2c82611bca565b611c368185611bd5565b9350611c46818560208601611be6565b611c4f81611c10565b840191505092915050565b60006020820190508181036000830152611c748184611c21565b905092915050565b600080fd5b7f4e487b7100000000000000000000000000000000000000000000000000000000600052604160045260246000fd5b611cb982611c10565b810181811067ffffffffffffffff82111715611cd857611cd7611c81565b5b80604052505050565b6000611ceb6119d0565b9050611cf78282611cb0565b919050565b600067ffffffffffffffff821115611d1757611d16611c81565b5b602082029050602081019050919050565b600080fd5b6000611d40611d3b84611cfc565b611ce1565b90508083825260208201905060208402830185811115611d6357611d62611d28565b5b835b81811015611d8c5780611d788882611a63565b845260208401935050602081019050611d65565b5050509392505050565b600082601f830112611dab57611daa611c7c565b5b8135611dbb848260208601611d2d565b91505092915050565b600080fd5b600067ffffffffffffffff821115611de457611de3611c81565b5b611ded82611c10565b9050602081019050919050565b82818337600083830152505050565b6000611e1c611e1784611dc9565b611ce1565b905082815260208101848484011115611e3857611e37611dc4565b5b611e43848285611dfa565b509392505050565b600082601f830112611e6057611e5f611c7c565b5b8135611e70848260208601611e09565b91505092915050565b60008060008060808587031215611e9357611e926119da565b5b6000611ea187828801611a2d565b945050602085013567ffffffffffffffff811115611ec257611ec16119df565b5b611ece87828801611d96565b935050604085013567ffffffffffffffff811115611eef57611eee6119df565b5b611efb87828801611d96565b925050606085013567ffffffffffffffff811115611f1c57611f1b6119df565b5b611f2887828801611e4b565b91505092959194509250565b600080600080600060a08688031215611f5057611f4f6119da565b5b6000611f5e88828901611a2d565b9550506020611f6f88828901611a2d565b945050604086013567ffffffffffffffff811115611f9057611f8f6119df565b5b611f9c88828901611d96565b935050606086013567ffffffffffffffff811115611fbd57611fbc6119df565b5b611fc988828901611d96565b925050608086013567ffffffffffffffff811115611fea57611fe96119df565b5b611ff688828901611e4b565b9150509295509295909350565b600067ffffffffffffffff82111561201e5761201d611c81565b5b602082029050602081019050919050565b600061204261203d84612003565b611ce1565b9050808382526020820190506020840283018581111561206557612064611d28565b5b835b8181101561208e578061207a8882611a2d565b845260208401935050602081019050612067565b5050509392505050565b600082601f8301126120ad576120ac611c7c565b5b81356120bd84826020860161202f565b91505092915050565b600080604083850312156120dd576120dc6119da565b5b600083013567ffffffffffffffff8111156120fb576120fa6119df565b5b61210785828601612098565b925050602083013567ffffffffffffffff811115612128576121276119df565b5b61213485828601611d96565b9150509250929050565b600081519050919050565b600082825260208201905092915050565b6000819050602082019050919050565b61217381611a42565b82525050565b6000612185838361216a565b60208301905092915050565b6000602082019050919050565b60006121a98261213e565b6121b38185612149565b93506121be8361215a565b8060005b838110156121ef5781516121d68882612179565b97506121e183612191565b9250506001810190506121c2565b5085935050505092915050565b60006020820190508181036000830152612216818461219e565b905092915050565b60008060008060808587031215612238576122376119da565b5b600061224687828801611a2d565b945050602061225787828801611a63565b935050604061226887828801611a63565b925050606085013567ffffffffffffffff811115612289576122886119df565b5b61229587828801611e4b565b91505092959194509250565b6122aa81611a04565b82525050565b60006020820190506122c560008301846122a1565b92915050565b6122d481611b67565b81146122df57600080fd5b50565b6000813590506122f1816122cb565b92915050565b6000806040838503121561230e5761230d6119da565b5b600061231c85828601611a2d565b925050602061232d858286016122e2565b9150509250929050565b6000806040838503121561234e5761234d6119da565b5b600061235c85828601611a2d565b925050602061236d85828601611a2d565b9150509250929050565b600080600080600060a08688031215612393576123926119da565b5b60006123a188828901611a2d565b95505060206123b288828901611a2d565b94505060406123c388828901611a63565b93505060606123d488828901611a63565b925050608086013567ffffffffffffffff8111156123f5576123f46119df565b5b61240188828901611e4b565b9150509295509295909350565b600060208284031215612424576124236119da565b5b600061243284828501611a2d565b91505092915050565b7f455243313135353a2061646472657373207a65726f206973206e6f742061207660008201527f616c6964206f776e657200000000000000000000000000000000000000000000602082015250565b6000612497602a83611bd5565b91506124a28261243b565b604082019050919050565b600060208201905081810360008301526124c68161248a565b9050919050565b7f4e487b7100000000000000000000000000000000000000000000000000000000600052602260045260246000fd5b6000600282049050600182168061251457607f821691505b602082108103612527576125266124cd565b5b50919050565b7f455243313135353a2063616c6c6572206973206e6f7420746f6b656e206f776e60008201527f6572206f7220617070726f766564000000000000000000000000000000000000602082015250565b6000612589602e83611bd5565b91506125948261252d565b604082019050919050565b600060208201905081810360008301526125b88161257c565b9050919050565b7f455243313135353a206163636f756e747320616e6420696473206c656e67746860008201527f206d69736d617463680000000000000000000000000000000000000000000000602082015250565b600061261b602983611bd5565b9150612626826125bf565b604082019050919050565b6000602082019050818103600083015261264a8161260e565b9050919050565b7f4e487b7100000000000000000000000000000000000000000000000000000000600052603260045260246000fd5b7f4e487b7100000000000000000000000000000000000000000000000000000000600052601160045260246000fd5b60006126ba82611a42565b91507fffffffffffffffffffffffffffffffffffffffffffffffffffffffffffffffff82036126ec576126eb612680565b5b600182019050919050565b7f4f776e61626c653a206e6577206f776e657220697320746865207a65726f206160008201527f6464726573730000000000000000000000000000000000000000000000000000602082015250565b6000612753602683611bd5565b915061275e826126f7565b604082019050919050565b6000602082019050818103600083015261278281612746565b9050919050565b7f455243313135353a206d696e7420746f20746865207a65726f2061646472657360008201527f7300000000000000000000000000000000000000000000000000000000000000602082015250565b60006127e5602183611bd5565b91506127f082612789565b604082019050919050565b60006020820190508181036000830152612814816127d8565b9050919050565b7f455243313135353a2069647320616e6420616d6f756e7473206c656e6774682060008201527f6d69736d61746368000000000000000000000000000000000000000000000000602082015250565b6000612877602883611bd5565b91506128828261281b565b604082019050919050565b600060208201905081810360008301526128a68161286a565b9050919050565b60006128b882611a42565b91506128c383611a42565b92508282019050808211156128db576128da612680565b5b92915050565b600060408201905081810360008301526128fb818561219e565b9050818103602083015261290f818461219e565b90509392505050565b7f455243313135353a207472616e7366657220746f20746865207a65726f20616460008201527f6472657373000000000000000000000000000000000000000000000000000000602082015250565b6000612974602583611bd5565b915061297f82612918565b604082019050919050565b600060208201905081810360008301526129a381612967565b9050919050565b7f455243313135353a20696e73756666696369656e742062616c616e636520666f60008201527f72207472616e7366657200000000000000000000000000000000000000000000602082015250565b6000612a06602a83611bd5565b9150612a11826129aa565b604082019050919050565b60006020820190508181036000830152612a35816129f9565b9050919050565b7f4f776e61626c653a2063616c6c6572206973206e6f7420746865206f776e6572600082015250565b6000612a72602083611bd5565b9150612a7d82612a3c565b602082019050919050565b60006020820190508181036000830152612aa181612a65565b9050919050565b6000604082019050612abd6000830185611ab8565b612aca6020830184611ab8565b9392505050565b7f455243313135353a2073657474696e6720617070726f76616c2073746174757360008201527f20666f722073656c660000000000000000000000000000000000000000000000602082015250565b6000612b2d602983611bd5565b9150612b3882612ad1565b604082019050919050565b60006020820190508181036000830152612b5c81612b20565b9050919050565b600081519050919050565b600082825260208201905092915050565b6000612b8a82612b63565b612b948185612b6e565b9350612ba4818560208601611be6565b612bad81611c10565b840191505092915050565b600060a082019050612bcd60008301886122a1565b612bda60208301876122a1565b8181036040830152612bec818661219e565b90508181036060830152612c00818561219e565b90508181036080830152612c148184612b7f565b90509695505050505050565b600081519050612c2f81611b0e565b92915050565b600060208284031215612c4b57612c4a6119da565b5b6000612c5984828501612c20565b91505092915050565b60008160e01c9050919050565b600060033d1115612c8e5760046000803e612c8b600051612c62565b90505b90565b600060443d10612d1e57612ca36119d0565b60043d036004823e80513d602482011167ffffffffffffffff82111715612ccb575050612d1e565b808201805167ffffffffffffffff811115612ce95750505050612d1e565b80602083010160043d038501811115612d06575050505050612d1e565b612d1582602001850186611cb0565b82955050505050505b90565b7f455243313135353a207472616e7366657220746f206e6f6e2d4552433131353560008201527f526563656976657220696d706c656d656e746572000000000000000000000000602082015250565b6000612d7d603483611bd5565b9150612d8882612d21565b604082019050919050565b60006020820190508181036000830152612dac81612d70565b9050919050565b7f455243313135353a204552433131353552656365697665722072656a6563746560008201527f6420746f6b656e73000000000000000000000000000000000000000000000000602082015250565b6000612e0f602883611bd5565b9150612e1a82612db3565b604082019050919050565b60006020820190508181036000830152612e3e81612e02565b9050919050565b600060a082019050612e5a60008301886122a1565b612e6760208301876122a1565b612e746040830186611ab8565b612e816060830185611ab8565b8181036080830152612e938184612b7f565b9050969550505050505056fea2646970667358221220c9b922f922ac1f8566290a6dacb5a2a260237b257f167724e6b86b644710ae2d64736f6c63430008110033"
  },
  "linkReferences": {},
  "deployedLinkReferences": {}
}