{
  "_format": "hh-sol-artifact-1",
  "contractName": "MintableERC721Token",
  "sourceName": "contracts/ERC721UniversallyMintable.sol",
  "abi": [
    {
      "inputs": [
        {
          "internalType": "string",
          "name": "name",
          "type": "string"
        },
        {
          "internalType": "string",
          "name": "symbol",
          "type": "string"
        }
      ],
      "stateMutability": "nonpayable",
      "type": "constructor"
    },
    {
      "anonymous": false,
      "inputs": [
        {
          "indexed": true,
          "internalType": "address",
          "name": "owner",
          "type": "address"
        },
        {
          "indexed": true,
          "internalType": "address",
          "name": "approved",
          "type": "address"
        },
        {
          "indexed": true,
          "internalType": "uint256",
          "name": "tokenId",
          "type": "uint256"
        }
      ],
      "name": "Approval",
      "type": "event"
    },
    {
      "anonymous": false,
      "inputs": [
        {
          "indexed": true,
          "internalType": "address",
          "name": "owner",
          "type": "address"
        },
        {
          "indexed": true,
          "internalType": "address",
          "name": "operator",
          "type": "address"
        },
        {
          "indexed": false,
          "internalType": "bool",
          "name": "approved",
          "type": "bool"
        }
      ],
      "name": "ApprovalForAll",
      "type": "event"
    },
    {
      "anonymous": false,
      "inputs": [
        {
          "indexed": true,
          "internalType": "address",
          "name": "previousOwner",
          "type": "address"
        },
        {
          "indexed": true,
          "internalType": "address",
          "name": "newOwner",
          "type": "address"
        }
      ],
      "name": "OwnershipTransferred",
      "type": "event"
    },
    {
      "anonymous": false,
      "inputs": [
        {
          "indexed": true,
          "internalType": "address",
          "name": "from",
          "type": "address"
        },
        {
          "indexed": true,
          "internalType": "address",
          "name": "to",
          "type": "address"
        },
        {
          "indexed": true,
          "internalType": "uint256",
          "name": "tokenId",
          "type": "uint256"
        }
      ],
      "name": "Transfer",
      "type": "event"
    },
    {
      "inputs": [
        {
          "internalType": "address",
          "name": "to",
          "type": "address"
        },
        {
          "internalType": "uint256",
          "name": "tokenId",
          "type": "uint256"
        }
      ],
      "name": "approve",
      "outputs": [],
      "stateMutability": "nonpayable",
      "type": "function"
    },
    {
      "inputs": [
        {
          "internalType": "address",
          "name": "owner",
          "type": "address"
        }
      ],
      "name": "balanceOf",
      "outputs": [
        {
          "internalType": "uint256",
          "name": "",
          "type": "uint256"
        }
      ],
      "stateMutability": "view",
      "type": "function"
    },
    {
      "inputs": [
        {
          "internalType": "uint256",
          "name": "tokenId",
          "type": "uint256"
        }
      ],
      "name": "getApproved",
      "outputs": [
        {
          "internalType": "address",
          "name": "",
          "type": "address"
        }
      ],
      "stateMutability": "view",
      "type": "function"
    },
    {
      "inputs": [
        {
          "internalType": "address",
          "name": "owner",
          "type": "address"
        },
        {
          "internalType": "address",
          "name": "operator",
          "type": "address"
        }
      ],
      "name": "isApprovedForAll",
      "outputs": [
        {
          "internalType": "bool",
          "name": "",
          "type": "bool"
        }
      ],
      "stateMutability": "view",
      "type": "function"
    },
    {
      "inputs": [
        {
          "internalType": "address",
          "name": "to",
          "type": "address"
        }
      ],
      "name": "mint",
      "outputs": [],
      "stateMutability": "nonpayable",
      "type": "function"
    },
    {
      "inputs": [],
      "name": "name",
      "outputs": [
        {
          "internalType": "string",
          "name": "",
          "type": "string"
        }
      ],
      "stateMutability": "view",
      "type": "function"
    },
    {
      "inputs": [],
      "name": "owner",
      "outputs": [
        {
          "internalType": "address",
          "name": "",
          "type": "address"
        }
      ],
      "stateMutability": "view",
      "type": "function"
    },
    {
      "inputs": [
        {
          "internalType": "uint256",
          "name": "tokenId",
          "type": "uint256"
        }
      ],
      "name": "ownerOf",
      "outputs": [
        {
          "internalType": "address",
          "name": "",
          "type": "address"
        }
      ],
      "stateMutability": "view",
      "type": "function"
    },
    {
      "inputs": [],
      "name": "renounceOwnership",
      "outputs": [],
      "stateMutability": "nonpayable",
      "type": "function"
    },
    {
      "inputs": [
        {
          "internalType": "address",
          "name": "from",
          "type": "address"
        },
        {
          "internalType": "address",
          "name": "to",
          "type": "address"
        },
        {
          "internalType": "uint256",
          "name": "tokenId",
          "type": "uint256"
        }
      ],
      "name": "safeTransferFrom",
      "outputs": [],
      "stateMutability": "nonpayable",
      "type": "function"
    },
    {
      "inputs": [
        {
          "internalType": "address",
          "name": "from",
          "type": "address"
        },
        {
          "internalType": "address",
          "name": "to",
          "type": "address"
        },
        {
          "internalType": "uint256",
          "name": "tokenId",
          "type": "uint256"
        },
        {
          "internalType": "bytes",
          "name": "data",
          "type": "bytes"
        }
      ],
      "name": "safeTransferFrom",
      "outputs": [],
      "stateMutability": "nonpayable",
      "type": "function"
    },
    {
      "inputs": [
        {
          "internalType": "address",
          "name": "operator",
          "type": "address"
        },
        {
          "internalType": "bool",
          "name": "approved",
          "type": "bool"
        }
      ],
      "name": "setApprovalForAll",
      "outputs": [],
      "stateMutability": "nonpayable",
      "type": "function"
    },
    {
      "inputs": [
        {
          "internalType": "bytes4",
          "name": "interfaceId",
          "type": "bytes4"
        }
      ],
      "name": "supportsInterface",
      "outputs": [
        {
          "internalType": "bool",
          "name": "",
          "type": "bool"
        }
      ],
      "stateMutability": "view",
      "type": "function"
    },
    {
      "inputs": [],
      "name": "symbol",
      "outputs": [
        {
          "internalType": "string",
          "name": "",
          "type": "string"
        }
      ],
      "stateMutability": "view",
      "type": "function"
    },
    {
      "inputs": [
        {
          "internalType": "uint256",
          "name": "tokenId",
          "type": "uint256"
        }
      ],
      "name": "tokenURI",
      "outputs": [
        {
          "internalType": "string",
          "name": "",
          "type": "string"
        }
      ],
      "stateMutability": "view",
      "type": "function"
    },
    {
      "inputs": [
        {
          "internalType": "address",
          "name": "from",
          "type": "address"
        },
        {
          "internalType": "address",
          "name": "to",
          "type": "address"
        },
        {
          "internalType": "uint256",
          "name": "tokenId",
          "type": "uint256"
        }
      ],
      "name": "transferFrom",
      "outputs": [],
      "stateMutability": "nonpayable",
      "type": "function"
    },
    {
      "inputs": [
        {
          "internalType": "address",
          "name": "newOwner",
          "type": "address"
        }
      ],
      "name": "transferOwnership",
      "outputs": [],
      "stateMutability": "nonpayable",
      "type": "function"
    }
  ],
  "bytecode": {
    "object": "0x608060405260006007553480156200001657600080fd5b5060405162002efa38038062002efa83398181016040528101906200003c9190620002ed565b818181600090816200004f9190620005bd565b508060019081620000619190620005bd565b50505062000084620000786200008c60201b60201c565b6200009460201b60201c565b5050620006a4565b600033905090565b6000600660009054906101000a900473ffffffffffffffffffffffffffffffffffffffff16905081600660006101000a81548173ffffffffffffffffffffffffffffffffffffffff021916908373ffffffffffffffffffffffffffffffffffffffff1602179055508173ffffffffffffffffffffffffffffffffffffffff168173ffffffffffffffffffffffffffffffffffffffff167f8be0079c531659141344cd1fd0a4f28419497f9722a3daafe3b4186f6b6457e060405160405180910390a35050565b6000604051905090565b600080fd5b600080fd5b600080fd5b600080fd5b6000601f19601f8301169050919050565b7f4e487b7100000000000000000000000000000000000000000000000000000000600052604160045260246000fd5b620001c38262000178565b810181811067ffffffffffffffff82111715620001e557620001e462000189565b5b80604052505050565b6000620001fa6200015a565b9050620002088282620001b8565b919050565b600067ffffffffffffffff8211156200022b576200022a62000189565b5b620002368262000178565b9050602081019050919050565b60005b838110156200026357808201518184015260208101905062000246565b60008484015250505050565b60006200028662000280846200020d565b620001ee565b905082815260208101848484011115620002a557620002a462000173565b5b620002b284828562000243565b509392505050565b600082601f830112620002d257620002d16200016e565b5b8151620002e48482602086016200026f565b91505092915050565b6000806040838503121562000307576200030662000164565b5b600083015167ffffffffffffffff81111562000328576200032762000169565b5b6200033685828601620002ba565b925050602083015167ffffffffffffffff8111156200035a576200035962000169565b5b6200036885828601620002ba565b9150509250929050565b600081519050919050565b7f4e487b7100000000000000000000000000000000000000000000000000000000600052602260045260246000fd5b60006002820490506001821680620003c557607f821691505b602082108103620003db57620003da6200037d565b5b50919050565b60008190508160005260206000209050919050565b60006020601f8301049050919050565b600082821b905092915050565b600060088302620004457fffffffffffffffffffffffffffffffffffffffffffffffffffffffffffffffff8262000406565b62000451868362000406565b95508019841693508086168417925050509392505050565b6000819050919050565b6000819050919050565b60006200049e62000498620004928462000469565b62000473565b62000469565b9050919050565b6000819050919050565b620004ba836200047d565b620004d2620004c982620004a5565b84845462000413565b825550505050565b600090565b620004e9620004da565b620004f6818484620004af565b505050565b5b818110156200051e5762000512600082620004df565b600181019050620004fc565b5050565b601f8211156200056d576200053781620003e1565b6200054284620003f6565b8101602085101562000552578190505b6200056a6200056185620003f6565b830182620004fb565b50505b505050565b600082821c905092915050565b6000620005926000198460080262000572565b1980831691505092915050565b6000620005ad83836200057f565b9150826002028217905092915050565b620005c88262000372565b67ffffffffffffffff811115620005e457620005e362000189565b5b620005f08254620003ac565b620005fd82828562000522565b600060209050601f83116001811462000635576000841562000620578287015190505b6200062c85826200059f565b8655506200069c565b601f1984166200064586620003e1565b60005b828110156200066f5784890151825560018201915060208501945060208101905062000648565b868310156200068f57848901516200068b601f8916826200057f565b8355505b6001600288020188555050505b505050505050565b61284680620006b46000396000f3fe608060405234801561001057600080fd5b506004361061010b5760003560e01c806370a08231116100a2578063a22cb46511610071578063a22cb465146102a4578063b88d4fde146102c0578063c87b56dd146102dc578063e985e9c51461030c578063f2fde38b1461033c5761010b565b806370a082311461022e578063715018a61461025e5780638da5cb5b1461026857806395d89b41146102865761010b565b806323b872dd116100de57806323b872dd146101aa57806342842e0e146101c65780636352211e146101e25780636a627842146102125761010b565b806301ffc9a71461011057806306fdde0314610140578063081812fc1461015e578063095ea7b31461018e575b600080fd5b61012a600480360381019061012591906119e1565b610358565b6040516101379190611a29565b60405180910390f35b61014861043a565b6040516101559190611ad4565b60405180910390f35b61017860048036038101906101739190611b2c565b6104cc565b6040516101859190611b9a565b60405180910390f35b6101a860048036038101906101a39190611be1565b610512565b005b6101c460048036038101906101bf9190611c21565b610629565b005b6101e060048036038101906101db9190611c21565b610689565b005b6101fc60048036038101906101f79190611b2c565b6106a9565b6040516102099190611b9a565b60405180910390f35b61022c60048036038101906102279190611c74565b61072f565b005b61024860048036038101906102439190611c74565b61075e565b6040516102559190611cb0565b60405180910390f35b610266610815565b005b610270610829565b60405161027d9190611b9a565b60405180910390f35b61028e610853565b60405161029b9190611ad4565b60405180910390f35b6102be60048036038101906102b99190611cf7565b6108e5565b005b6102da60048036038101906102d59190611e6c565b6108fb565b005b6102f660048036038101906102f19190611b2c565b61095d565b6040516103039190611ad4565b60405180910390f35b61032660048036038101906103219190611eef565b6109c5565b6040516103339190611a29565b60405180910390f35b61035660048036038101906103519190611c74565b610a59565b005b60007f80ac58cd000000000000000000000000000000000000000000000000000000007bffffffffffffffffffffffffffffffffffffffffffffffffffffffff1916827bffffffffffffffffffffffffffffffffffffffffffffffffffffffff1916148061042357507f5b5e139f000000000000000000000000000000000000000000000000000000007bffffffffffffffffffffffffffffffffffffffffffffffffffffffff1916827bffffffffffffffffffffffffffffffffffffffffffffffffffffffff1916145b80610433575061043282610adc565b5b9050919050565b60606000805461044990611f5e565b80601f016020809104026020016040519081016040528092919081815260200182805461047590611f5e565b80156104c25780601f10610497576101008083540402835291602001916104c2565b820191906000526020600020905b8154815290600101906020018083116104a557829003601f168201915b5050505050905090565b60006104d782610b46565b6004600083815260200190815260200160002060009054906101000a900473ffffffffffffffffffffffffffffffffffffffff169050919050565b600061051d826106a9565b90508073ffffffffffffffffffffffffffffffffffffffff168373ffffffffffffffffffffffffffffffffffffffff160361058d576040517f08c379a000000000000000000000000000000000000000000000000000000000815260040161058490612001565b60405180910390fd5b8073ffffffffffffffffffffffffffffffffffffffff166105ac610b91565b73ffffffffffffffffffffffffffffffffffffffff1614806105db57506105da816105d5610b91565b6109c5565b5b61061a576040517f08c379a000000000000000000000000000000000000000000000000000000000815260040161061190612093565b60405180910390fd5b6106248383610b99565b505050565b61063a610634610b91565b82610c52565b610679576040517f08c379a000000000000000000000000000000000000000000000000000000000815260040161067090612125565b60405180910390fd5b610684838383610ce7565b505050565b6106a4838383604051806020016040528060008152506108fb565b505050565b6000806106b583610fe0565b9050600073ffffffffffffffffffffffffffffffffffffffff168173ffffffffffffffffffffffffffffffffffffffff1603610726576040517f08c379a000000000000000000000000000000000000000000000000000000000815260040161071d90612191565b60405180910390fd5b80915050919050565b60006007549050610740828261101d565b60016007600082825461075391906121e0565b925050819055505050565b60008073ffffffffffffffffffffffffffffffffffffffff168273ffffffffffffffffffffffffffffffffffffffff16036107ce576040517f08c379a00000000000000000000000000000000000000000000000000000000081526004016107c590612286565b60405180910390fd5b600360008373ffffffffffffffffffffffffffffffffffffffff1673ffffffffffffffffffffffffffffffffffffffff168152602001908152602001600020549050919050565b61081d61123a565b61082760006112b8565b565b6000600660009054906101000a900473ffffffffffffffffffffffffffffffffffffffff16905090565b60606001805461086290611f5e565b80601f016020809104026020016040519081016040528092919081815260200182805461088e90611f5e565b80156108db5780601f106108b0576101008083540402835291602001916108db565b820191906000526020600020905b8154815290600101906020018083116108be57829003601f168201915b5050505050905090565b6108f76108f0610b91565b838361137e565b5050565b61090c610906610b91565b83610c52565b61094b576040517f08c379a000000000000000000000000000000000000000000000000000000000815260040161094290612125565b60405180910390fd5b610957848484846114ea565b50505050565b606061096882610b46565b6000610972611546565b9050600081511161099257604051806020016040528060008152506109bd565b8061099c8461155d565b6040516020016109ad9291906122e2565b6040516020818303038152906040525b915050919050565b6000600560008473ffffffffffffffffffffffffffffffffffffffff1673ffffffffffffffffffffffffffffffffffffffff16815260200190815260200160002060008373ffffffffffffffffffffffffffffffffffffffff1673ffffffffffffffffffffffffffffffffffffffff16815260200190815260200160002060009054906101000a900460ff16905092915050565b610a6161123a565b600073ffffffffffffffffffffffffffffffffffffffff168173ffffffffffffffffffffffffffffffffffffffff1603610ad0576040517f08c379a0000000000000000000000000000000000000000000000000000000008152600401610ac790612378565b60405180910390fd5b610ad9816112b8565b50565b60007f01ffc9a7000000000000000000000000000000000000000000000000000000007bffffffffffffffffffffffffffffffffffffffffffffffffffffffff1916827bffffffffffffffffffffffffffffffffffffffffffffffffffffffff1916149050919050565b610b4f8161162b565b610b8e576040517f08c379a0000000000000000000000000000000000000000000000000000000008152600401610b8590612191565b60405180910390fd5b50565b600033905090565b816004600083815260200190815260200160002060006101000a81548173ffffffffffffffffffffffffffffffffffffffff021916908373ffffffffffffffffffffffffffffffffffffffff160217905550808273ffffffffffffffffffffffffffffffffffffffff16610c0c836106a9565b73ffffffffffffffffffffffffffffffffffffffff167f8c5be1e5ebec7d5bd14f71427d1e84f3dd0314c0f7b2291e5b200ac8c7c3b92560405160405180910390a45050565b600080610c5e836106a9565b90508073ffffffffffffffffffffffffffffffffffffffff168473ffffffffffffffffffffffffffffffffffffffff161480610ca05750610c9f81856109c5565b5b80610cde57508373ffffffffffffffffffffffffffffffffffffffff16610cc6846104cc565b73ffffffffffffffffffffffffffffffffffffffff16145b91505092915050565b8273ffffffffffffffffffffffffffffffffffffffff16610d07826106a9565b73ffffffffffffffffffffffffffffffffffffffff1614610d5d576040517f08c379a0000000000000000000000000000000000000000000000000000000008152600401610d549061240a565b60405180910390fd5b600073ffffffffffffffffffffffffffffffffffffffff168273ffffffffffffffffffffffffffffffffffffffff1603610dcc576040517f08c379a0000000000000000000000000000000000000000000000000000000008152600401610dc39061249c565b60405180910390fd5b610dd9838383600161166c565b8273ffffffffffffffffffffffffffffffffffffffff16610df9826106a9565b73ffffffffffffffffffffffffffffffffffffffff1614610e4f576040517f08c379a0000000000000000000000000000000000000000000000000000000008152600401610e469061240a565b60405180910390fd5b6004600082815260200190815260200160002060006101000a81549073ffffffffffffffffffffffffffffffffffffffff02191690556001600360008573ffffffffffffffffffffffffffffffffffffffff1673ffffffffffffffffffffffffffffffffffffffff168152602001908152602001600020600082825403925050819055506001600360008473ffffffffffffffffffffffffffffffffffffffff1673ffffffffffffffffffffffffffffffffffffffff16815260200190815260200160002060008282540192505081905550816002600083815260200190815260200160002060006101000a81548173ffffffffffffffffffffffffffffffffffffffff021916908373ffffffffffffffffffffffffffffffffffffffff160217905550808273ffffffffffffffffffffffffffffffffffffffff168473ffffffffffffffffffffffffffffffffffffffff167fddf252ad1be2c89b69c2b068fc378daa952ba7f163c4a11628f55a4df523b3ef60405160405180910390a4610fdb8383836001611672565b505050565b60006002600083815260200190815260200160002060009054906101000a900473ffffffffffffffffffffffffffffffffffffffff169050919050565b600073ffffffffffffffffffffffffffffffffffffffff168273ffffffffffffffffffffffffffffffffffffffff160361108c576040517f08c379a000000000000000000000000000000000000000000000000000000000815260040161108390612508565b60405180910390fd5b6110958161162b565b156110d5576040517f08c379a00000000000000000000000000000000000000000000000000000000081526004016110cc90612574565b60405180910390fd5b6110e360008383600161166c565b6110ec8161162b565b1561112c576040517f08c379a000000000000000000000000000000000000000000000000000000000815260040161112390612574565b60405180910390fd5b6001600360008473ffffffffffffffffffffffffffffffffffffffff1673ffffffffffffffffffffffffffffffffffffffff16815260200190815260200160002060008282540192505081905550816002600083815260200190815260200160002060006101000a81548173ffffffffffffffffffffffffffffffffffffffff021916908373ffffffffffffffffffffffffffffffffffffffff160217905550808273ffffffffffffffffffffffffffffffffffffffff16600073ffffffffffffffffffffffffffffffffffffffff167fddf252ad1be2c89b69c2b068fc378daa952ba7f163c4a11628f55a4df523b3ef60405160405180910390a4611236600083836001611672565b5050565b611242610b91565b73ffffffffffffffffffffffffffffffffffffffff16611260610829565b73ffffffffffffffffffffffffffffffffffffffff16146112b6576040517f08c379a00000000000000000000000000000000000000000000000000000000081526004016112ad906125e0565b60405180910390fd5b565b6000600660009054906101000a900473ffffffffffffffffffffffffffffffffffffffff16905081600660006101000a81548173ffffffffffffffffffffffffffffffffffffffff021916908373ffffffffffffffffffffffffffffffffffffffff1602179055508173ffffffffffffffffffffffffffffffffffffffff168173ffffffffffffffffffffffffffffffffffffffff167f8be0079c531659141344cd1fd0a4f28419497f9722a3daafe3b4186f6b6457e060405160405180910390a35050565b8173ffffffffffffffffffffffffffffffffffffffff168373ffffffffffffffffffffffffffffffffffffffff16036113ec576040517f08c379a00000000000000000000000000000000000000000000000000000000081526004016113e39061264c565b60405180910390fd5b80600560008573ffffffffffffffffffffffffffffffffffffffff1673ffffffffffffffffffffffffffffffffffffffff16815260200190815260200160002060008473ffffffffffffffffffffffffffffffffffffffff1673ffffffffffffffffffffffffffffffffffffffff16815260200190815260200160002060006101000a81548160ff0219169083151502179055508173ffffffffffffffffffffffffffffffffffffffff168373ffffffffffffffffffffffffffffffffffffffff167f17307eab39ab6107e8899845ad3d59bd9653f200f220920489ca2b5937696c31836040516114dd9190611a29565b60405180910390a3505050565b6114f5848484610ce7565b61150184848484611678565b611540576040517f08c379a0000000000000000000000000000000000000000000000000000000008152600401611537906126de565b60405180910390fd5b50505050565b606060405180602001604052806000815250905090565b60606000600161156c846117ff565b01905060008167ffffffffffffffff81111561158b5761158a611d41565b5b6040519080825280601f01601f1916602001820160405280156115bd5781602001600182028036833780820191505090505b509050600082602001820190505b600115611620578080600190039150507f3031323334353637383961626364656600000000000000000000000000000000600a86061a8153600a8581611614576116136126fe565b5b049450600085036115cb575b819350505050919050565b60008073ffffffffffffffffffffffffffffffffffffffff1661164d83610fe0565b73ffffffffffffffffffffffffffffffffffffffff1614159050919050565b50505050565b50505050565b60006116998473ffffffffffffffffffffffffffffffffffffffff16611952565b156117f2578373ffffffffffffffffffffffffffffffffffffffff1663150b7a026116c2610b91565b8786866040518563ffffffff1660e01b81526004016116e49493929190612782565b6020604051808303816000875af192505050801561172057506040513d601f19601f8201168201806040525081019061171d91906127e3565b60015b6117a2573d8060008114611750576040519150601f19603f3d011682016040523d82523d6000602084013e611755565b606091505b50600081510361179a576040517f08c379a0000000000000000000000000000000000000000000000000000000008152600401611791906126de565b60405180910390fd5b805181602001fd5b63150b7a0260e01b7bffffffffffffffffffffffffffffffffffffffffffffffffffffffff1916817bffffffffffffffffffffffffffffffffffffffffffffffffffffffff1916149150506117f7565b600190505b949350505050565b600080600090507a184f03e93ff9f4daa797ed6e38ed64bf6a1f010000000000000000831061185d577a184f03e93ff9f4daa797ed6e38ed64bf6a1f0100000000000000008381611853576118526126fe565b5b0492506040810190505b6d04ee2d6d415b85acef8100000000831061189a576d04ee2d6d415b85acef810000000083816118905761188f6126fe565b5b0492506020810190505b662386f26fc1000083106118c957662386f26fc1000083816118bf576118be6126fe565b5b0492506010810190505b6305f5e10083106118f2576305f5e10083816118e8576118e76126fe565b5b0492506008810190505b612710831061191757612710838161190d5761190c6126fe565b5b0492506004810190505b6064831061193a57606483816119305761192f6126fe565b5b0492506002810190505b600a8310611949576001810190505b80915050919050565b6000808273ffffffffffffffffffffffffffffffffffffffff163b119050919050565b6000604051905090565b600080fd5b600080fd5b60007fffffffff0000000000000000000000000000000000000000000000000000000082169050919050565b6119be81611989565b81146119c957600080fd5b50565b6000813590506119db816119b5565b92915050565b6000602082840312156119f7576119f661197f565b5b6000611a05848285016119cc565b91505092915050565b60008115159050919050565b611a2381611a0e565b82525050565b6000602082019050611a3e6000830184611a1a565b92915050565b600081519050919050565b600082825260208201905092915050565b60005b83811015611a7e578082015181840152602081019050611a63565b60008484015250505050565b6000601f19601f8301169050919050565b6000611aa682611a44565b611ab08185611a4f565b9350611ac0818560208601611a60565b611ac981611a8a565b840191505092915050565b60006020820190508181036000830152611aee8184611a9b565b905092915050565b6000819050919050565b611b0981611af6565b8114611b1457600080fd5b50565b600081359050611b2681611b00565b92915050565b600060208284031215611b4257611b4161197f565b5b6000611b5084828501611b17565b91505092915050565b600073ffffffffffffffffffffffffffffffffffffffff82169050919050565b6000611b8482611b59565b9050919050565b611b9481611b79565b82525050565b6000602082019050611baf6000830184611b8b565b92915050565b611bbe81611b79565b8114611bc957600080fd5b50565b600081359050611bdb81611bb5565b92915050565b60008060408385031215611bf857611bf761197f565b5b6000611c0685828601611bcc565b9250506020611c1785828601611b17565b9150509250929050565b600080600060608486031215611c3a57611c3961197f565b5b6000611c4886828701611bcc565b9350506020611c5986828701611bcc565b9250506040611c6a86828701611b17565b9150509250925092565b600060208284031215611c8a57611c8961197f565b5b6000611c9884828501611bcc565b91505092915050565b611caa81611af6565b82525050565b6000602082019050611cc56000830184611ca1565b92915050565b611cd481611a0e565b8114611cdf57600080fd5b50565b600081359050611cf181611ccb565b92915050565b60008060408385031215611d0e57611d0d61197f565b5b6000611d1c85828601611bcc565b9250506020611d2d85828601611ce2565b9150509250929050565b600080fd5b600080fd5b7f4e487b7100000000000000000000000000000000000000000000000000000000600052604160045260246000fd5b611d7982611a8a565b810181811067ffffffffffffffff82111715611d9857611d97611d41565b5b80604052505050565b6000611dab611975565b9050611db78282611d70565b919050565b600067ffffffffffffffff821115611dd757611dd6611d41565b5b611de082611a8a565b9050602081019050919050565b82818337600083830152505050565b6000611e0f611e0a84611dbc565b611da1565b905082815260208101848484011115611e2b57611e2a611d3c565b5b611e36848285611ded565b509392505050565b600082601f830112611e5357611e52611d37565b5b8135611e63848260208601611dfc565b91505092915050565b60008060008060808587031215611e8657611e8561197f565b5b6000611e9487828801611bcc565b9450506020611ea587828801611bcc565b9350506040611eb687828801611b17565b925050606085013567ffffffffffffffff811115611ed757611ed6611984565b5b611ee387828801611e3e565b91505092959194509250565b60008060408385031215611f0657611f0561197f565b5b6000611f1485828601611bcc565b9250506020611f2585828601611bcc565b9150509250929050565b7f4e487b7100000000000000000000000000000000000000000000000000000000600052602260045260246000fd5b60006002820490506001821680611f7657607f821691505b602082108103611f8957611f88611f2f565b5b50919050565b7f4552433732313a20617070726f76616c20746f2063757272656e74206f776e6560008201527f7200000000000000000000000000000000000000000000000000000000000000602082015250565b6000611feb602183611a4f565b9150611ff682611f8f565b604082019050919050565b6000602082019050818103600083015261201a81611fde565b9050919050565b7f4552433732313a20617070726f76652063616c6c6572206973206e6f7420746f60008201527f6b656e206f776e6572206f7220617070726f76656420666f7220616c6c000000602082015250565b600061207d603d83611a4f565b915061208882612021565b604082019050919050565b600060208201905081810360008301526120ac81612070565b9050919050565b7f4552433732313a2063616c6c6572206973206e6f7420746f6b656e206f776e6560008201527f72206f7220617070726f76656400000000000000000000000000000000000000602082015250565b600061210f602d83611a4f565b915061211a826120b3565b604082019050919050565b6000602082019050818103600083015261213e81612102565b9050919050565b7f4552433732313a20696e76616c696420746f6b656e2049440000000000000000600082015250565b600061217b601883611a4f565b915061218682612145565b602082019050919050565b600060208201905081810360008301526121aa8161216e565b9050919050565b7f4e487b7100000000000000000000000000000000000000000000000000000000600052601160045260246000fd5b60006121eb82611af6565b91506121f683611af6565b925082820190508082111561220e5761220d6121b1565b5b92915050565b7f4552433732313a2061646472657373207a65726f206973206e6f74206120766160008201527f6c6964206f776e65720000000000000000000000000000000000000000000000602082015250565b6000612270602983611a4f565b915061227b82612214565b604082019050919050565b6000602082019050818103600083015261229f81612263565b9050919050565b600081905092915050565b60006122bc82611a44565b6122c681856122a6565b93506122d6818560208601611a60565b80840191505092915050565b60006122ee82856122b1565b91506122fa82846122b1565b91508190509392505050565b7f4f776e61626c653a206e6577206f776e657220697320746865207a65726f206160008201527f6464726573730000000000000000000000000000000000000000000000000000602082015250565b6000612362602683611a4f565b915061236d82612306565b604082019050919050565b6000602082019050818103600083015261239181612355565b9050919050565b7f4552433732313a207472616e736665722066726f6d20696e636f72726563742060008201527f6f776e6572000000000000000000000000000000000000000000000000000000602082015250565b60006123f4602583611a4f565b91506123ff82612398565b604082019050919050565b60006020820190508181036000830152612423816123e7565b9050919050565b7f4552433732313a207472616e7366657220746f20746865207a65726f2061646460008201527f7265737300000000000000000000000000000000000000000000000000000000602082015250565b6000612486602483611a4f565b91506124918261242a565b604082019050919050565b600060208201905081810360008301526124b581612479565b9050919050565b7f4552433732313a206d696e7420746f20746865207a65726f2061646472657373600082015250565b60006124f2602083611a4f565b91506124fd826124bc565b602082019050919050565b60006020820190508181036000830152612521816124e5565b9050919050565b7f4552433732313a20746f6b656e20616c7265616479206d696e74656400000000600082015250565b600061255e601c83611a4f565b915061256982612528565b602082019050919050565b6000602082019050818103600083015261258d81612551565b9050919050565b7f4f776e61626c653a2063616c6c6572206973206e6f7420746865206f776e6572600082015250565b60006125ca602083611a4f565b91506125d582612594565b602082019050919050565b600060208201905081810360008301526125f9816125bd565b9050919050565b7f4552433732313a20617070726f766520746f2063616c6c657200000000000000600082015250565b6000612636601983611a4f565b915061264182612600565b602082019050919050565b6000602082019050818103600083015261266581612629565b9050919050565b7f4552433732313a207472616e7366657220746f206e6f6e20455243373231526560008201527f63656976657220696d706c656d656e7465720000000000000000000000000000602082015250565b60006126c8603283611a4f565b91506126d38261266c565b604082019050919050565b600060208201905081810360008301526126f7816126bb565b9050919050565b7f4e487b7100000000000000000000000000000000000000000000000000000000600052601260045260246000fd5b600081519050919050565b600082825260208201905092915050565b60006127548261272d565b61275e8185612738565b935061276e818560208601611a60565b61277781611a8a565b840191505092915050565b60006080820190506127976000830187611b8b565b6127a46020830186611b8b565b6127b16040830185611ca1565b81810360608301526127c38184612749565b905095945050505050565b6000815190506127dd816119b5565b92915050565b6000602082840312156127f9576127f861197f565b5b6000612807848285016127ce565b9150509291505056fea2646970667358221220e6667825d774d9b6fb51f3720334b0ec9279795b44efeff15f61b988119995c464736f6c63430008110033"
  },
  "linkReferences": {},
  "deployedLinkReferences": {}
}